{
  "contracts/Trybe.sol": {
    "Trybe": {
      "abi": [
        {
          "inputs": [
            {
              "internalType": "uint256",
              "name": "_fee",
              "type": "uint256"
            }
          ],
          "stateMutability": "nonpayable",
          "type": "constructor"
        },
        {
          "anonymous": false,
          "inputs": [
            {
              "indexed": true,
              "internalType": "address",
              "name": "creator",
              "type": "address"
            },
            {
              "indexed": false,
              "internalType": "string",
              "name": "nameOfAlbum",
              "type": "string"
            },
            {
              "indexed": false,
              "internalType": "uint256",
              "name": "albumId",
              "type": "uint256"
            }
          ],
          "name": "AlbumCreated",
          "type": "event"
        },
        {
          "anonymous": false,
          "inputs": [
            {
              "indexed": false,
              "internalType": "uint256",
              "name": "albumId",
              "type": "uint256"
            },
            {
              "indexed": false,
              "internalType": "uint256",
              "name": "imageId",
              "type": "uint256"
            }
          ],
          "name": "ImageAdded",
          "type": "event"
        },
        {
          "anonymous": false,
          "inputs": [
            {
              "indexed": true,
              "internalType": "address",
              "name": "participant",
              "type": "address"
            },
            {
              "indexed": false,
              "internalType": "uint256",
              "name": "timeJoined",
              "type": "uint256"
            }
          ],
          "name": "JoinedAlbum",
          "type": "event"
        },
        {
          "inputs": [
            {
              "internalType": "uint256",
              "name": "albumId",
              "type": "uint256"
            },
            {
              "internalType": "string",
              "name": "_url",
              "type": "string"
            },
            {
              "internalType": "string",
              "name": "_description",
              "type": "string"
            }
          ],
          "name": "addImageToAlbum",
          "outputs": [],
          "stateMutability": "nonpayable",
          "type": "function"
        },
        {
          "inputs": [
            {
              "internalType": "uint256",
              "name": "",
              "type": "uint256"
            }
          ],
          "name": "album",
          "outputs": [
            {
              "internalType": "uint256",
              "name": "id",
              "type": "uint256"
            },
            {
              "internalType": "uint8",
              "name": "visibility",
              "type": "uint8"
            },
            {
              "internalType": "uint256",
              "name": "fee",
              "type": "uint256"
            },
            {
              "internalType": "address",
              "name": "owner",
              "type": "address"
            },
            {
              "internalType": "string",
              "name": "name",
              "type": "string"
            },
            {
              "internalType": "string",
              "name": "description",
              "type": "string"
            },
            {
              "internalType": "string",
              "name": "profileImage",
              "type": "string"
            },
            {
              "internalType": "uint256",
              "name": "created",
              "type": "uint256"
            },
            {
              "internalType": "uint256",
              "name": "totalNoOfImages",
              "type": "uint256"
            }
          ],
          "stateMutability": "view",
          "type": "function"
        },
        {
          "inputs": [
            {
              "internalType": "string",
              "name": "_name",
              "type": "string"
            },
            {
              "internalType": "string",
              "name": "description",
              "type": "string"
            },
            {
              "internalType": "address[]",
              "name": "_participants",
              "type": "address[]"
            },
            {
              "internalType": "string",
              "name": "_image",
              "type": "string"
            },
            {
              "internalType": "uint8",
              "name": "visibility",
              "type": "uint8"
            },
            {
              "internalType": "uint256",
              "name": "_fee",
              "type": "uint256"
            }
          ],
          "name": "createAlbum",
          "outputs": [],
          "stateMutability": "nonpayable",
          "type": "function"
        },
        {
          "inputs": [
            {
              "internalType": "uint256",
              "name": "albumId",
              "type": "uint256"
            }
          ],
          "name": "getAlbum",
          "outputs": [
            {
              "components": [
                {
                  "internalType": "uint256",
                  "name": "id",
                  "type": "uint256"
                },
                {
                  "internalType": "uint8",
                  "name": "visibility",
                  "type": "uint8"
                },
                {
                  "internalType": "uint256",
                  "name": "fee",
                  "type": "uint256"
                },
                {
                  "internalType": "address",
                  "name": "owner",
                  "type": "address"
                },
                {
                  "internalType": "string",
                  "name": "name",
                  "type": "string"
                },
                {
                  "internalType": "string",
                  "name": "description",
                  "type": "string"
                },
                {
                  "internalType": "string",
                  "name": "profileImage",
                  "type": "string"
                },
                {
                  "internalType": "uint256",
                  "name": "created",
                  "type": "uint256"
                },
                {
                  "internalType": "address[]",
                  "name": "participants",
                  "type": "address[]"
                },
                {
                  "internalType": "uint256",
                  "name": "totalNoOfImages",
                  "type": "uint256"
                }
              ],
              "internalType": "struct Trybe.Album",
              "name": "",
              "type": "tuple"
            }
          ],
          "stateMutability": "view",
          "type": "function"
        },
        {
          "inputs": [
            {
              "internalType": "uint256",
              "name": "albumId",
              "type": "uint256"
            },
            {
              "internalType": "uint256",
              "name": "imageId",
              "type": "uint256"
            }
          ],
          "name": "getImageInPrivateAlbum",
          "outputs": [
            {
              "components": [
                {
                  "internalType": "uint256",
                  "name": "id",
                  "type": "uint256"
                },
                {
                  "internalType": "string",
                  "name": "url",
                  "type": "string"
                },
                {
                  "internalType": "string",
                  "name": "description",
                  "type": "string"
                },
                {
                  "internalType": "address",
                  "name": "owner",
                  "type": "address"
                }
              ],
              "internalType": "struct Trybe.Image",
              "name": "",
              "type": "tuple"
            }
          ],
          "stateMutability": "payable",
          "type": "function"
        },
        {
          "inputs": [
            {
              "internalType": "uint256",
              "name": "albumId",
              "type": "uint256"
            },
            {
              "internalType": "uint256",
              "name": "imageId",
              "type": "uint256"
            }
          ],
          "name": "getImageInPublicAlbum",
          "outputs": [
            {
              "components": [
                {
                  "internalType": "uint256",
                  "name": "id",
                  "type": "uint256"
                },
                {
                  "internalType": "string",
                  "name": "url",
                  "type": "string"
                },
                {
                  "internalType": "string",
                  "name": "description",
                  "type": "string"
                },
                {
                  "internalType": "address",
                  "name": "owner",
                  "type": "address"
                }
              ],
              "internalType": "struct Trybe.Image",
              "name": "",
              "type": "tuple"
            }
          ],
          "stateMutability": "view",
          "type": "function"
        },
        {
          "inputs": [
            {
              "internalType": "uint256",
              "name": "albumId",
              "type": "uint256"
            }
          ],
          "name": "getImagesInPrivateAlbum",
          "outputs": [
            {
              "components": [
                {
                  "internalType": "uint256",
                  "name": "id",
                  "type": "uint256"
                },
                {
                  "internalType": "string",
                  "name": "url",
                  "type": "string"
                },
                {
                  "internalType": "string",
                  "name": "description",
                  "type": "string"
                },
                {
                  "internalType": "address",
                  "name": "owner",
                  "type": "address"
                }
              ],
              "internalType": "struct Trybe.Image[]",
              "name": "",
              "type": "tuple[]"
            }
          ],
          "stateMutability": "payable",
          "type": "function"
        },
        {
          "inputs": [
            {
              "internalType": "uint256",
              "name": "albumId",
              "type": "uint256"
            }
          ],
          "name": "getImagesInPublicAlbum",
          "outputs": [
            {
              "components": [
                {
                  "internalType": "uint256",
                  "name": "id",
                  "type": "uint256"
                },
                {
                  "internalType": "string",
                  "name": "url",
                  "type": "string"
                },
                {
                  "internalType": "string",
                  "name": "description",
                  "type": "string"
                },
                {
                  "internalType": "address",
                  "name": "owner",
                  "type": "address"
                }
              ],
              "internalType": "struct Trybe.Image[]",
              "name": "",
              "type": "tuple[]"
            }
          ],
          "stateMutability": "view",
          "type": "function"
        },
        {
          "inputs": [
            {
              "internalType": "uint256",
              "name": "albumId",
              "type": "uint256"
            }
          ],
          "name": "getListofParticipants",
          "outputs": [
            {
              "internalType": "address[]",
              "name": "",
              "type": "address[]"
            }
          ],
          "stateMutability": "view",
          "type": "function"
        },
        {
          "inputs": [
            {
              "internalType": "uint256",
              "name": "",
              "type": "uint256"
            },
            {
              "internalType": "uint256",
              "name": "",
              "type": "uint256"
            }
          ],
          "name": "imagesInAlbum",
          "outputs": [
            {
              "internalType": "uint256",
              "name": "id",
              "type": "uint256"
            },
            {
              "internalType": "string",
              "name": "url",
              "type": "string"
            },
            {
              "internalType": "string",
              "name": "description",
              "type": "string"
            },
            {
              "internalType": "address",
              "name": "owner",
              "type": "address"
            }
          ],
          "stateMutability": "view",
          "type": "function"
        },
        {
          "inputs": [
            {
              "internalType": "uint256",
              "name": "albumId",
              "type": "uint256"
            }
          ],
          "name": "joinAlbum",
          "outputs": [],
          "stateMutability": "payable",
          "type": "function"
        },
        {
          "inputs": [],
          "name": "owner",
          "outputs": [
            {
              "internalType": "address",
              "name": "",
              "type": "address"
            }
          ],
          "stateMutability": "view",
          "type": "function"
        },
        {
          "inputs": [],
          "name": "totalNoOfAlbumsCreated",
          "outputs": [
            {
              "internalType": "uint256",
              "name": "",
              "type": "uint256"
            }
          ],
          "stateMutability": "view",
          "type": "function"
        }
      ],
      "evm": {
        "bytecode": {
          "linkReferences": {},
          "object": "60803461006657601f611bc638819003918201601f19168301916001600160401b0383118484101761006b578084926020946040528339810103126100665751600080546001600160a01b03191633178155600155600255604051611b4490816100828239f35b600080fd5b634e487b7160e01b600052604160045260246000fdfe6080604052600436101561001257600080fd5b60003560e01c80630fd59adb146113a25780633b8f313b1461130c57806340368f851461128b57806351927c6d1461120257806356148eb11461113557806357d47a9d146110225780636d49f8cc146110045780636f4e27f014610c195780638d84d7fc14610ae45780638da5cb5b14610abb578063d6e465c9146108ac578063e89e6a00146107dc5763f3187157146100ab57600080fd5b346107b75760c03660031901126107b7576004356001600160401b0381116107b7576100db903690600401611702565b6024356001600160401b0381116107b7576100fa903690600401611702565b90604435916001600160401b0383116107b757366023840112156107b757826004013561012681611749565b936101346040519586611621565b8185526024602086019260051b820101903682116107b757602401915b8183106107bc575050506064356001600160401b0381116107b75761017a903690600401611702565b6084359260ff841684036107b757331561077257805115610738578251156106b7576101a760015461196b565b8060015585519360018501851161069a576101df60016101c8818801611749565b966101d66040519889611621565b01808752611749565b601f190136602087013760005b875181101561021d576001906001600160a01b0361020a828b61197a565b5116610216828961197a565b52016101ec565b508490600160ff888a6102323391518761197a565b528560005260036020526040600020958655828601828216831982541617905516146000146106b057670de0b6b3a76400008060a435029060a43582041460a43515171561069a575b60028401556003830180546001600160a01b0319163317905583516001600160401b03811161046b576102b160048501546115b0565b601f8111610665575b50806020601f82116001146105f8576000916105ed575b508160011b916000199060031b1c19161760048401555b8051906001600160401b03821161046b57819061030860058601546115b0565b601f81116105b8575b50602090601f83116001146105465760009261053b575b50508160011b916000199060031b1c19161760058301555b83516001600160401b03811161046b5761035d60068401546115b0565b601f81116104fb575b506020601f821160011461048c578192939495600092610481575b50508160011b916000199060031b1c19161760068301555b426007830155600882018151916001600160401b03831161046b57600160401b831161046b57602090825484845580851061044e575b500190600052602060002060005b8381106104315760006009860155600154604080518181527fd3cc7c228a9442b3e32b7fb9e7ac4298594eeb118c36cbfbaf73feef8394627d916104239082018a6114ae565b9260208201528033930390a2005b82516001600160a01b0316818301556020909201916001016103dd565b610465908460005285846000209182019101611af7565b866103cf565b634e487b7160e01b600052604160045260246000fd5b015190508580610381565b6006840160005260206000209060005b601f19841681106104e3575060019394959683601f198116106104ca575b505050811b016006830155610399565b015160001960f88460031b161c191690558580806104ba565b9091602060018192858b01518155019301910161049c565b61052b90600685016000526020600020601f840160051c81019160208510610531575b601f0160051c0190611af7565b85610366565b909150819061051e565b015190508680610328565b9250600585016000526020600020906000935b601f198416851061059d576001945083601f19811610610584575b505050811b016005830155610340565b015160001960f88460031b161c19169055868080610574565b81810151835560209485019460019093019290910190610559565b6105e790600587016000526020600020601f850160051c8101916020861061053157601f0160051c0190611af7565b87610311565b9050850151876102d1565b91506004850160005260206000206000925b601f198316841061064d576001935082601f19811610610634575b5050811b0160048401556102e8565b87015160001960f88460031b161c191690558780610625565b8781015182556020938401936001909201910161060a565b61069490600486016000526020600020601f840160051c8101916020851061053157601f0160051c0190611af7565b866102ba565b634e487b7160e01b600052601160045260246000fd5b600061027b565b60405162461bcd60e51b815260206004820152604d60248201527f446573637269626520796f757220616c62756d20746f206c657420746865207760448201527f6f726c64206b6e6f7720686f7720796f752066656c74207768656e20796f752060648201526c31b932b0ba32b2103a3434b99760991b608482015260a490fd5b60405162461bcd60e51b8152602060048201526012602482015271283632b0b9b29030b2321030903730b6b29760711b6044820152606490fd5b60405162461bcd60e51b815260206004820152601a60248201527f4e6f207a65726f2061646472657373657320616c6c6f7765642e0000000000006044820152606490fd5b600080fd5b82356001600160a01b03811681036107b757815260209283019201610151565b346107b75760203660031901126107b7576004356000526003602052604060002080549060ff6001820154169060028101549261089c60018060a01b036003840154169161088e61082f60048601611642565b61088061083e60058801611642565b9161084b60068901611642565b94600960078a0154990154976040519b8c9b610120938d5260208d015260408c015260608b01528060808b01528901906114ae565b9087820360a08901526114ae565b9085820360c08701526114ae565b9160e08401526101008301520390f35b346107b75760203660031901126107b75760043560006101206040516108d181611605565b82815282602082015282604082015282606082015260606080820152606060a0820152606060c08201528260e08201526060610100820152015280151580610aaf575b61091d90611760565b600052600360205260406000206040519061093782611605565b8054825260018082015460ff1660208401526002820154604084015260038201546001600160a01b031660608401529060099061097660048201611642565b608085015261098760058201611642565b60a085015261099860068201611642565b60c0850152600781015460e08501526109b3600882016119ed565b610100850152015461012083015260405190602082528251602083015260ff60208401511660408301526040830151606083015260018060a01b0360608401511660808301526080830151610a16610140918260a08601526101608501906114ae565b91610a4a610a3660a087015194601f1995868883030160c08901526114ae565b60c0870151858783030160e08801526114ae565b9060e086015161010086015261010086015193858303016101208601526020808551938481520194019160005b818110610a91575050505061012083940151908301520390f35b83516001600160a01b03168652602095860195909301928201610a77565b50600154811115610914565b346107b75760003660031901126107b7576000546040516001600160a01b039091168152602090f35b60203660031901126107b75760043580151580610c0d575b610b0590611760565b60005260036020526040600020600181019060ff825416158015610bff575b610b2d90611a93565b600881018054600160401b81101561046b57610b52816001938460ff94018155611adf565b949080549560031b848060a01b03968733831b921b1916179055541614610ba2575b6040514281527f59a4dadce245655ce4c5ea128f142c4034b1206deff52ff605866cd86433de8160203392a2005b600080808093610bf895610be5838080806064610bc260025434906117f8565b0496866003610bd18a3461180b565b920154165af1610bdf611818565b50611848565b8254165af1610bf2611818565b5061189f565b8080610b74565b506002810154341015610b24565b50600154811115610afc565b346107b75760603660031901126107b7576001600160401b036004356024358281116107b757610c4d903690600401611702565b6044358381116107b757610c65903690600401611702565b82151580610ff8575b610c7790611760565b826000526003916020928084526040600020916009830193610c99855461196b565b80865560089094018054600091825b828110610fc3575b50505015610f5f5760405191610cc5836115ea565b8483528683019081526040830191825260608301943386528860005260048852604060002090600052875260406000209251835560019081840190519081518b811161046b5780610d1683546115b0565b93601f948c868211610f30575b50508b90858311600114610ece57600092610ec3575b505060001982891b1c191690841b1790555b60028401925180519a8b1161046b57610d6484546115b0565b8b838211610e8a575b505088918b11600114610dfd57998060409a9998979695949381937f5138483d623eef75882d5ca6ed33e44c7ecafe842f3311844eabf67a297ce76c9d600094610df2575b50501b9160001990861b1c19161790555b019060018060a01b039051166bffffffffffffffffffffffff60a01b82541617905554908351928352820152a1005b015192508d80610db2565b9990601f1982169a84600052896000209b60005b818110610e755750917f5138483d623eef75882d5ca6ed33e44c7ecafe842f3311844eabf67a297ce76c9c918460409d9c9b9a99989796959410610e5d575b505050811b019055610dc3565b015160001983881b60f8161c191690558b8080610e50565b838301518e559c85019c928b01928b01610e11565b610eb39186600052848c600020918d82850160051c84019410610eba575b0160051c0190611af7565b8b8b610d6d565b92508192610ea8565b015190508d80610d39565b60008581528d8120889550929190601f198516908f5b828210610f195750508411610f01575b505050811b019055610d4b565b0151600019838b1b60f8161c191690558d8080610ef4565b8385015186558a979095019493840193018f610ee4565b610f58918660005287826000209181870160051c8301938710610eba570160051c0190611af7565b8e8c610d23565b60405162461bcd60e51b815260048101879052603660248201527f4f6e6c792074686f73652077686f2068617665206a6f696e656420746865206160448201527536313ab69031b0b71030b2321030b71034b6b0b3b29760511b6064820152608490fd5b610fcd8183611adf565b905490881b1c6001600160a01b03163314610fea57600101610ca8565b505050506001898080610cb0565b50600154831115610c6e565b346107b75760003660031901126107b7576020600154604051908152f35b61102b3661159a565b906110346118f6565b5080151580611129575b61104790611760565b8115158061110e575b61105990611a47565b8060005260036020526110c4600080808060408120600160ff81830154161480611100575b611087906117ac565b6003610be583808080606461109f60025434906117f8565b04966110ab883461180b565b9601546001600160a01b03969087165af1610bdf611818565b60005260046020526040600020906000526020526110fc6110e860406000206119a4565b6040519182916020835260208301906114ee565b0390f35b50600281015434101561107e565b50600081815260036020526040902060090154821115611050565b5060015481111561103e565b346107b7576020806003193601126107b75760043590811515806111f6575b61115d90611760565b8160005260036020526009604060002061117e60ff60018301541615611a93565b01549061118a8261191b565b9260015b838111156111a457604051806110fc8782611536565b8160005260048352604060002081600052835260406000209060001981019181831161069a576111f1926111da6111eb926119a4565b6111e4828a61197a565b528761197a565b5061196b565b61118e565b50600154821115611154565b346107b7576112103661159a565b9060005260046020526040600020906000526020526040600020805461123860018301611642565b9161128161124860028301611642565b91600360018060a01b03910154169161127360405195869586526080602087015260808601906114ae565b9084820360408601526114ae565b9060608301520390f35b346107b7576112993661159a565b906112a26118f6565b5080151580611300575b6112b590611760565b811515806112e5575b6112c790611a47565b8060005260036020526110c460ff6001604060002001541615611a93565b506000818152600360205260409020600901548211156112be565b506001548111156112ac565b346107b7576020806003193601126107b75760043580151580611396575b61133390611760565b6000526003815261134a60086040600020016119ed565b906040519181839283018184528251809152816040850193019160005b82811061137657505050500390f35b83516001600160a01b031685528695509381019392810192600101611367565b5060015481111561132a565b6020806003193601126107b75760043590811515806114a2575b6113c590611760565b81600052600360205260096040600020600160ff81830154161480611494575b6113ee906117ac565b6114336000808080606461140560025434906117f8565b046003610be583808080611419873461180b565b958d01546001600160a01b03969087165af1610bdf611818565b01549061143f8261191b565b9260015b8381111561145957604051806110fc8782611536565b8160005260048352604060002081600052835260406000209060001981019181831161069a5761148f926111da6111eb926119a4565b611443565b5060028101543410156113e5565b506001548211156113bc565b919082519283825260005b8481106114da575050826000602080949584010152601f8019910116010190565b6020818301810151848301820152016114b9565b9081518152606061152361151160208501516080602086015260808501906114ae565b604085015184820360408601526114ae565b928101516001600160a01b031691015290565b6020808201906020835283518092526040830192602060408460051b8301019501936000915b84831061156c5750505050505090565b909192939495848061158a600193603f198682030187528a516114ee565b980193019301919493929061155c565b60409060031901126107b7576004359060243590565b90600182811c921680156115e0575b60208310146115ca57565b634e487b7160e01b600052602260045260246000fd5b91607f16916115bf565b608081019081106001600160401b0382111761046b57604052565b61014081019081106001600160401b0382111761046b57604052565b90601f801991011681019081106001600160401b0382111761046b57604052565b90604051918260008254611655816115b0565b908184526020946001916001811690816000146116c55750600114611686575b50505061168492500383611621565b565b600090815285812095935091905b8183106116ad5750506116849350820101388080611675565b85548884018501529485019487945091830191611694565b9250505061168494925060ff191682840152151560051b820101388080611675565b6001600160401b03811161046b57601f01601f191660200190565b81601f820112156107b757803590611719826116e7565b926117276040519485611621565b828452602083830101116107b757816000926020809301838601378301015290565b6001600160401b03811161046b5760051b60200190565b1561176757565b60405162461bcd60e51b815260206004820152601960248201527f5468697320616c62756d20646f6573206e6f74206578697374000000000000006044820152606490fd5b156117b357565b60405162461bcd60e51b815260206004820152601760248201527f546869732069732061207075626c696320616c62756d2e0000000000000000006044820152606490fd5b8181029291811591840414171561069a57565b9190820391821161069a57565b3d15611843573d90611829826116e7565b916118376040519384611621565b82523d6000602084013e565b606090565b1561184f57565b60405162461bcd60e51b815260206004820152602260248201527f466565207061796d656e7420746f20616c62756d206f776e6572206661696c65604482015261321760f11b6064820152608490fd5b156118a657565b60405162461bcd60e51b815260206004820152602260248201527f466565207061796d656e7420746f207472796265206f776e6572206661696c65604482015261321760f11b6064820152608490fd5b60405190611903826115ea565b60006060838281528160208201528160408201520152565b9061192582611749565b6119326040519182611621565b8281528092611943601f1991611749565b019060005b82811061195457505050565b60209061195f6118f6565b82828501015201611948565b600019811461069a5760010190565b805182101561198e5760209160051b010190565b634e487b7160e01b600052603260045260246000fd5b906040516119b1816115ea565b60608193805483526119c560018201611642565b60208401526119d660028201611642565b6040840152600301546001600160a01b0316910152565b90604051918281549182825260209260208301916000526020600020936000905b828210611a245750505061168492500383611621565b85546001600160a01b031684526001958601958895509381019390910190611a0e565b15611a4e57565b60405162461bcd60e51b815260206004820152601960248201527f5468697320696d61676520646f6573206e6f74206578697374000000000000006044820152606490fd5b15611a9a57565b60405162461bcd60e51b815260206004820152601860248201527f546869732069732061207072697661746520616c62756d2e00000000000000006044820152606490fd5b805482101561198e5760005260206000200190600090565b818110611b02575050565b60008155600101611af756fea2646970667358221220cca29359bc3a94770fbed0ed1023d798439dd14ddd24a22ad4d5205f162bbb6264736f6c63430008180033",
          "opcodes": "PUSH1 0x80 CALLVALUE PUSH2 0x66 JUMPI PUSH1 0x1F PUSH2 0x1BC6 CODESIZE DUP2 SWAP1 SUB SWAP2 DUP3 ADD PUSH1 0x1F NOT AND DUP4 ADD SWAP2 PUSH1 0x1 PUSH1 0x1 PUSH1 0x40 SHL SUB DUP4 GT DUP5 DUP5 LT OR PUSH2 0x6B JUMPI DUP1 DUP5 SWAP3 PUSH1 0x20 SWAP5 PUSH1 0x40 MSTORE DUP4 CODECOPY DUP2 ADD SUB SLT PUSH2 0x66 JUMPI MLOAD PUSH1 0x0 DUP1 SLOAD PUSH1 0x1 PUSH1 0x1 PUSH1 0xA0 SHL SUB NOT AND CALLER OR DUP2 SSTORE PUSH1 0x1 SSTORE PUSH1 0x2 SSTORE PUSH1 0x40 MLOAD PUSH2 0x1B44 SWAP1 DUP2 PUSH2 0x82 DUP3 CODECOPY RETURN JUMPDEST PUSH1 0x0 DUP1 REVERT JUMPDEST PUSH4 0x4E487B71 PUSH1 0xE0 SHL PUSH1 0x0 MSTORE PUSH1 0x41 PUSH1 0x4 MSTORE PUSH1 0x24 PUSH1 0x0 REVERT INVALID PUSH1 0x80 PUSH1 0x40 MSTORE PUSH1 0x4 CALLDATASIZE LT ISZERO PUSH2 0x12 JUMPI PUSH1 0x0 DUP1 REVERT JUMPDEST PUSH1 0x0 CALLDATALOAD PUSH1 0xE0 SHR DUP1 PUSH4 0xFD59ADB EQ PUSH2 0x13A2 JUMPI DUP1 PUSH4 0x3B8F313B EQ PUSH2 0x130C JUMPI DUP1 PUSH4 0x40368F85 EQ PUSH2 0x128B JUMPI DUP1 PUSH4 0x51927C6D EQ PUSH2 0x1202 JUMPI DUP1 PUSH4 0x56148EB1 EQ PUSH2 0x1135 JUMPI DUP1 PUSH4 0x57D47A9D EQ PUSH2 0x1022 JUMPI DUP1 PUSH4 0x6D49F8CC EQ PUSH2 0x1004 JUMPI DUP1 PUSH4 0x6F4E27F0 EQ PUSH2 0xC19 JUMPI DUP1 PUSH4 0x8D84D7FC EQ PUSH2 0xAE4 JUMPI DUP1 PUSH4 0x8DA5CB5B EQ PUSH2 0xABB JUMPI DUP1 PUSH4 0xD6E465C9 EQ PUSH2 0x8AC JUMPI DUP1 PUSH4 0xE89E6A00 EQ PUSH2 0x7DC JUMPI PUSH4 0xF3187157 EQ PUSH2 0xAB JUMPI PUSH1 0x0 DUP1 REVERT JUMPDEST CALLVALUE PUSH2 0x7B7 JUMPI PUSH1 0xC0 CALLDATASIZE PUSH1 0x3 NOT ADD SLT PUSH2 0x7B7 JUMPI PUSH1 0x4 CALLDATALOAD PUSH1 0x1 PUSH1 0x1 PUSH1 0x40 SHL SUB DUP2 GT PUSH2 0x7B7 JUMPI PUSH2 0xDB SWAP1 CALLDATASIZE SWAP1 PUSH1 0x4 ADD PUSH2 0x1702 JUMP JUMPDEST PUSH1 0x24 CALLDATALOAD PUSH1 0x1 PUSH1 0x1 PUSH1 0x40 SHL SUB DUP2 GT PUSH2 0x7B7 JUMPI PUSH2 0xFA SWAP1 CALLDATASIZE SWAP1 PUSH1 0x4 ADD PUSH2 0x1702 JUMP JUMPDEST SWAP1 PUSH1 0x44 CALLDATALOAD SWAP2 PUSH1 0x1 PUSH1 0x1 PUSH1 0x40 SHL SUB DUP4 GT PUSH2 0x7B7 JUMPI CALLDATASIZE PUSH1 0x23 DUP5 ADD SLT ISZERO PUSH2 0x7B7 JUMPI DUP3 PUSH1 0x4 ADD CALLDATALOAD PUSH2 0x126 DUP2 PUSH2 0x1749 JUMP JUMPDEST SWAP4 PUSH2 0x134 PUSH1 0x40 MLOAD SWAP6 DUP7 PUSH2 0x1621 JUMP JUMPDEST DUP2 DUP6 MSTORE PUSH1 0x24 PUSH1 0x20 DUP7 ADD SWAP3 PUSH1 0x5 SHL DUP3 ADD ADD SWAP1 CALLDATASIZE DUP3 GT PUSH2 0x7B7 JUMPI PUSH1 0x24 ADD SWAP2 JUMPDEST DUP2 DUP4 LT PUSH2 0x7BC JUMPI POP POP POP PUSH1 0x64 CALLDATALOAD PUSH1 0x1 PUSH1 0x1 PUSH1 0x40 SHL SUB DUP2 GT PUSH2 0x7B7 JUMPI PUSH2 0x17A SWAP1 CALLDATASIZE SWAP1 PUSH1 0x4 ADD PUSH2 0x1702 JUMP JUMPDEST PUSH1 0x84 CALLDATALOAD SWAP3 PUSH1 0xFF DUP5 AND DUP5 SUB PUSH2 0x7B7 JUMPI CALLER ISZERO PUSH2 0x772 JUMPI DUP1 MLOAD ISZERO PUSH2 0x738 JUMPI DUP3 MLOAD ISZERO PUSH2 0x6B7 JUMPI PUSH2 0x1A7 PUSH1 0x1 SLOAD PUSH2 0x196B JUMP JUMPDEST DUP1 PUSH1 0x1 SSTORE DUP6 MLOAD SWAP4 PUSH1 0x1 DUP6 ADD DUP6 GT PUSH2 0x69A JUMPI PUSH2 0x1DF PUSH1 0x1 PUSH2 0x1C8 DUP2 DUP9 ADD PUSH2 0x1749 JUMP JUMPDEST SWAP7 PUSH2 0x1D6 PUSH1 0x40 MLOAD SWAP9 DUP10 PUSH2 0x1621 JUMP JUMPDEST ADD DUP1 DUP8 MSTORE PUSH2 0x1749 JUMP JUMPDEST PUSH1 0x1F NOT ADD CALLDATASIZE PUSH1 0x20 DUP8 ADD CALLDATACOPY PUSH1 0x0 JUMPDEST DUP8 MLOAD DUP2 LT ISZERO PUSH2 0x21D JUMPI PUSH1 0x1 SWAP1 PUSH1 0x1 PUSH1 0x1 PUSH1 0xA0 SHL SUB PUSH2 0x20A DUP3 DUP12 PUSH2 0x197A JUMP JUMPDEST MLOAD AND PUSH2 0x216 DUP3 DUP10 PUSH2 0x197A JUMP JUMPDEST MSTORE ADD PUSH2 0x1EC JUMP JUMPDEST POP DUP5 SWAP1 PUSH1 0x1 PUSH1 0xFF DUP9 DUP11 PUSH2 0x232 CALLER SWAP2 MLOAD DUP8 PUSH2 0x197A JUMP JUMPDEST MSTORE DUP6 PUSH1 0x0 MSTORE PUSH1 0x3 PUSH1 0x20 MSTORE PUSH1 0x40 PUSH1 0x0 KECCAK256 SWAP6 DUP7 SSTORE DUP3 DUP7 ADD DUP3 DUP3 AND DUP4 NOT DUP3 SLOAD AND OR SWAP1 SSTORE AND EQ PUSH1 0x0 EQ PUSH2 0x6B0 JUMPI PUSH8 0xDE0B6B3A7640000 DUP1 PUSH1 0xA4 CALLDATALOAD MUL SWAP1 PUSH1 0xA4 CALLDATALOAD DUP3 DIV EQ PUSH1 0xA4 CALLDATALOAD ISZERO OR ISZERO PUSH2 0x69A JUMPI JUMPDEST PUSH1 0x2 DUP5 ADD SSTORE PUSH1 0x3 DUP4 ADD DUP1 SLOAD PUSH1 0x1 PUSH1 0x1 PUSH1 0xA0 SHL SUB NOT AND CALLER OR SWAP1 SSTORE DUP4 MLOAD PUSH1 0x1 PUSH1 0x1 PUSH1 0x40 SHL SUB DUP2 GT PUSH2 0x46B JUMPI PUSH2 0x2B1 PUSH1 0x4 DUP6 ADD SLOAD PUSH2 0x15B0 JUMP JUMPDEST PUSH1 0x1F DUP2 GT PUSH2 0x665 JUMPI JUMPDEST POP DUP1 PUSH1 0x20 PUSH1 0x1F DUP3 GT PUSH1 0x1 EQ PUSH2 0x5F8 JUMPI PUSH1 0x0 SWAP2 PUSH2 0x5ED JUMPI JUMPDEST POP DUP2 PUSH1 0x1 SHL SWAP2 PUSH1 0x0 NOT SWAP1 PUSH1 0x3 SHL SHR NOT AND OR PUSH1 0x4 DUP5 ADD SSTORE JUMPDEST DUP1 MLOAD SWAP1 PUSH1 0x1 PUSH1 0x1 PUSH1 0x40 SHL SUB DUP3 GT PUSH2 0x46B JUMPI DUP2 SWAP1 PUSH2 0x308 PUSH1 0x5 DUP7 ADD SLOAD PUSH2 0x15B0 JUMP JUMPDEST PUSH1 0x1F DUP2 GT PUSH2 0x5B8 JUMPI JUMPDEST POP PUSH1 0x20 SWAP1 PUSH1 0x1F DUP4 GT PUSH1 0x1 EQ PUSH2 0x546 JUMPI PUSH1 0x0 SWAP3 PUSH2 0x53B JUMPI JUMPDEST POP POP DUP2 PUSH1 0x1 SHL SWAP2 PUSH1 0x0 NOT SWAP1 PUSH1 0x3 SHL SHR NOT AND OR PUSH1 0x5 DUP4 ADD SSTORE JUMPDEST DUP4 MLOAD PUSH1 0x1 PUSH1 0x1 PUSH1 0x40 SHL SUB DUP2 GT PUSH2 0x46B JUMPI PUSH2 0x35D PUSH1 0x6 DUP5 ADD SLOAD PUSH2 0x15B0 JUMP JUMPDEST PUSH1 0x1F DUP2 GT PUSH2 0x4FB JUMPI JUMPDEST POP PUSH1 0x20 PUSH1 0x1F DUP3 GT PUSH1 0x1 EQ PUSH2 0x48C JUMPI DUP2 SWAP3 SWAP4 SWAP5 SWAP6 PUSH1 0x0 SWAP3 PUSH2 0x481 JUMPI JUMPDEST POP POP DUP2 PUSH1 0x1 SHL SWAP2 PUSH1 0x0 NOT SWAP1 PUSH1 0x3 SHL SHR NOT AND OR PUSH1 0x6 DUP4 ADD SSTORE JUMPDEST TIMESTAMP PUSH1 0x7 DUP4 ADD SSTORE PUSH1 0x8 DUP3 ADD DUP2 MLOAD SWAP2 PUSH1 0x1 PUSH1 0x1 PUSH1 0x40 SHL SUB DUP4 GT PUSH2 0x46B JUMPI PUSH1 0x1 PUSH1 0x40 SHL DUP4 GT PUSH2 0x46B JUMPI PUSH1 0x20 SWAP1 DUP3 SLOAD DUP5 DUP5 SSTORE DUP1 DUP6 LT PUSH2 0x44E JUMPI JUMPDEST POP ADD SWAP1 PUSH1 0x0 MSTORE PUSH1 0x20 PUSH1 0x0 KECCAK256 PUSH1 0x0 JUMPDEST DUP4 DUP2 LT PUSH2 0x431 JUMPI PUSH1 0x0 PUSH1 0x9 DUP7 ADD SSTORE PUSH1 0x1 SLOAD PUSH1 0x40 DUP1 MLOAD DUP2 DUP2 MSTORE PUSH32 0xD3CC7C228A9442B3E32B7FB9E7AC4298594EEB118C36CBFBAF73FEEF8394627D SWAP2 PUSH2 0x423 SWAP1 DUP3 ADD DUP11 PUSH2 0x14AE JUMP JUMPDEST SWAP3 PUSH1 0x20 DUP3 ADD MSTORE DUP1 CALLER SWAP4 SUB SWAP1 LOG2 STOP JUMPDEST DUP3 MLOAD PUSH1 0x1 PUSH1 0x1 PUSH1 0xA0 SHL SUB AND DUP2 DUP4 ADD SSTORE PUSH1 0x20 SWAP1 SWAP3 ADD SWAP2 PUSH1 0x1 ADD PUSH2 0x3DD JUMP JUMPDEST PUSH2 0x465 SWAP1 DUP5 PUSH1 0x0 MSTORE DUP6 DUP5 PUSH1 0x0 KECCAK256 SWAP2 DUP3 ADD SWAP2 ADD PUSH2 0x1AF7 JUMP JUMPDEST DUP7 PUSH2 0x3CF JUMP JUMPDEST PUSH4 0x4E487B71 PUSH1 0xE0 SHL PUSH1 0x0 MSTORE PUSH1 0x41 PUSH1 0x4 MSTORE PUSH1 0x24 PUSH1 0x0 REVERT JUMPDEST ADD MLOAD SWAP1 POP DUP6 DUP1 PUSH2 0x381 JUMP JUMPDEST PUSH1 0x6 DUP5 ADD PUSH1 0x0 MSTORE PUSH1 0x20 PUSH1 0x0 KECCAK256 SWAP1 PUSH1 0x0 JUMPDEST PUSH1 0x1F NOT DUP5 AND DUP2 LT PUSH2 0x4E3 JUMPI POP PUSH1 0x1 SWAP4 SWAP5 SWAP6 SWAP7 DUP4 PUSH1 0x1F NOT DUP2 AND LT PUSH2 0x4CA JUMPI JUMPDEST POP POP POP DUP2 SHL ADD PUSH1 0x6 DUP4 ADD SSTORE PUSH2 0x399 JUMP JUMPDEST ADD MLOAD PUSH1 0x0 NOT PUSH1 0xF8 DUP5 PUSH1 0x3 SHL AND SHR NOT AND SWAP1 SSTORE DUP6 DUP1 DUP1 PUSH2 0x4BA JUMP JUMPDEST SWAP1 SWAP2 PUSH1 0x20 PUSH1 0x1 DUP2 SWAP3 DUP6 DUP12 ADD MLOAD DUP2 SSTORE ADD SWAP4 ADD SWAP2 ADD PUSH2 0x49C JUMP JUMPDEST PUSH2 0x52B SWAP1 PUSH1 0x6 DUP6 ADD PUSH1 0x0 MSTORE PUSH1 0x20 PUSH1 0x0 KECCAK256 PUSH1 0x1F DUP5 ADD PUSH1 0x5 SHR DUP2 ADD SWAP2 PUSH1 0x20 DUP6 LT PUSH2 0x531 JUMPI JUMPDEST PUSH1 0x1F ADD PUSH1 0x5 SHR ADD SWAP1 PUSH2 0x1AF7 JUMP JUMPDEST DUP6 PUSH2 0x366 JUMP JUMPDEST SWAP1 SWAP2 POP DUP2 SWAP1 PUSH2 0x51E JUMP JUMPDEST ADD MLOAD SWAP1 POP DUP7 DUP1 PUSH2 0x328 JUMP JUMPDEST SWAP3 POP PUSH1 0x5 DUP6 ADD PUSH1 0x0 MSTORE PUSH1 0x20 PUSH1 0x0 KECCAK256 SWAP1 PUSH1 0x0 SWAP4 JUMPDEST PUSH1 0x1F NOT DUP5 AND DUP6 LT PUSH2 0x59D JUMPI PUSH1 0x1 SWAP5 POP DUP4 PUSH1 0x1F NOT DUP2 AND LT PUSH2 0x584 JUMPI JUMPDEST POP POP POP DUP2 SHL ADD PUSH1 0x5 DUP4 ADD SSTORE PUSH2 0x340 JUMP JUMPDEST ADD MLOAD PUSH1 0x0 NOT PUSH1 0xF8 DUP5 PUSH1 0x3 SHL AND SHR NOT AND SWAP1 SSTORE DUP7 DUP1 DUP1 PUSH2 0x574 JUMP JUMPDEST DUP2 DUP2 ADD MLOAD DUP4 SSTORE PUSH1 0x20 SWAP5 DUP6 ADD SWAP5 PUSH1 0x1 SWAP1 SWAP4 ADD SWAP3 SWAP1 SWAP2 ADD SWAP1 PUSH2 0x559 JUMP JUMPDEST PUSH2 0x5E7 SWAP1 PUSH1 0x5 DUP8 ADD PUSH1 0x0 MSTORE PUSH1 0x20 PUSH1 0x0 KECCAK256 PUSH1 0x1F DUP6 ADD PUSH1 0x5 SHR DUP2 ADD SWAP2 PUSH1 0x20 DUP7 LT PUSH2 0x531 JUMPI PUSH1 0x1F ADD PUSH1 0x5 SHR ADD SWAP1 PUSH2 0x1AF7 JUMP JUMPDEST DUP8 PUSH2 0x311 JUMP JUMPDEST SWAP1 POP DUP6 ADD MLOAD DUP8 PUSH2 0x2D1 JUMP JUMPDEST SWAP2 POP PUSH1 0x4 DUP6 ADD PUSH1 0x0 MSTORE PUSH1 0x20 PUSH1 0x0 KECCAK256 PUSH1 0x0 SWAP3 JUMPDEST PUSH1 0x1F NOT DUP4 AND DUP5 LT PUSH2 0x64D JUMPI PUSH1 0x1 SWAP4 POP DUP3 PUSH1 0x1F NOT DUP2 AND LT PUSH2 0x634 JUMPI JUMPDEST POP POP DUP2 SHL ADD PUSH1 0x4 DUP5 ADD SSTORE PUSH2 0x2E8 JUMP JUMPDEST DUP8 ADD MLOAD PUSH1 0x0 NOT PUSH1 0xF8 DUP5 PUSH1 0x3 SHL AND SHR NOT AND SWAP1 SSTORE DUP8 DUP1 PUSH2 0x625 JUMP JUMPDEST DUP8 DUP2 ADD MLOAD DUP3 SSTORE PUSH1 0x20 SWAP4 DUP5 ADD SWAP4 PUSH1 0x1 SWAP1 SWAP3 ADD SWAP2 ADD PUSH2 0x60A JUMP JUMPDEST PUSH2 0x694 SWAP1 PUSH1 0x4 DUP7 ADD PUSH1 0x0 MSTORE PUSH1 0x20 PUSH1 0x0 KECCAK256 PUSH1 0x1F DUP5 ADD PUSH1 0x5 SHR DUP2 ADD SWAP2 PUSH1 0x20 DUP6 LT PUSH2 0x531 JUMPI PUSH1 0x1F ADD PUSH1 0x5 SHR ADD SWAP1 PUSH2 0x1AF7 JUMP JUMPDEST DUP7 PUSH2 0x2BA JUMP JUMPDEST PUSH4 0x4E487B71 PUSH1 0xE0 SHL PUSH1 0x0 MSTORE PUSH1 0x11 PUSH1 0x4 MSTORE PUSH1 0x24 PUSH1 0x0 REVERT JUMPDEST PUSH1 0x0 PUSH2 0x27B JUMP JUMPDEST PUSH1 0x40 MLOAD PUSH3 0x461BCD PUSH1 0xE5 SHL DUP2 MSTORE PUSH1 0x20 PUSH1 0x4 DUP3 ADD MSTORE PUSH1 0x4D PUSH1 0x24 DUP3 ADD MSTORE PUSH32 0x446573637269626520796F757220616C62756D20746F206C6574207468652077 PUSH1 0x44 DUP3 ADD MSTORE PUSH32 0x6F726C64206B6E6F7720686F7720796F752066656C74207768656E20796F7520 PUSH1 0x64 DUP3 ADD MSTORE PUSH13 0x31B932B0BA32B2103A3434B997 PUSH1 0x99 SHL PUSH1 0x84 DUP3 ADD MSTORE PUSH1 0xA4 SWAP1 REVERT JUMPDEST PUSH1 0x40 MLOAD PUSH3 0x461BCD PUSH1 0xE5 SHL DUP2 MSTORE PUSH1 0x20 PUSH1 0x4 DUP3 ADD MSTORE PUSH1 0x12 PUSH1 0x24 DUP3 ADD MSTORE PUSH18 0x283632B0B9B29030B2321030903730B6B297 PUSH1 0x71 SHL PUSH1 0x44 DUP3 ADD MSTORE PUSH1 0x64 SWAP1 REVERT JUMPDEST PUSH1 0x40 MLOAD PUSH3 0x461BCD PUSH1 0xE5 SHL DUP2 MSTORE PUSH1 0x20 PUSH1 0x4 DUP3 ADD MSTORE PUSH1 0x1A PUSH1 0x24 DUP3 ADD MSTORE PUSH32 0x4E6F207A65726F2061646472657373657320616C6C6F7765642E000000000000 PUSH1 0x44 DUP3 ADD MSTORE PUSH1 0x64 SWAP1 REVERT JUMPDEST PUSH1 0x0 DUP1 REVERT JUMPDEST DUP3 CALLDATALOAD PUSH1 0x1 PUSH1 0x1 PUSH1 0xA0 SHL SUB DUP2 AND DUP2 SUB PUSH2 0x7B7 JUMPI DUP2 MSTORE PUSH1 0x20 SWAP3 DUP4 ADD SWAP3 ADD PUSH2 0x151 JUMP JUMPDEST CALLVALUE PUSH2 0x7B7 JUMPI PUSH1 0x20 CALLDATASIZE PUSH1 0x3 NOT ADD SLT PUSH2 0x7B7 JUMPI PUSH1 0x4 CALLDATALOAD PUSH1 0x0 MSTORE PUSH1 0x3 PUSH1 0x20 MSTORE PUSH1 0x40 PUSH1 0x0 KECCAK256 DUP1 SLOAD SWAP1 PUSH1 0xFF PUSH1 0x1 DUP3 ADD SLOAD AND SWAP1 PUSH1 0x2 DUP2 ADD SLOAD SWAP3 PUSH2 0x89C PUSH1 0x1 DUP1 PUSH1 0xA0 SHL SUB PUSH1 0x3 DUP5 ADD SLOAD AND SWAP2 PUSH2 0x88E PUSH2 0x82F PUSH1 0x4 DUP7 ADD PUSH2 0x1642 JUMP JUMPDEST PUSH2 0x880 PUSH2 0x83E PUSH1 0x5 DUP9 ADD PUSH2 0x1642 JUMP JUMPDEST SWAP2 PUSH2 0x84B PUSH1 0x6 DUP10 ADD PUSH2 0x1642 JUMP JUMPDEST SWAP5 PUSH1 0x9 PUSH1 0x7 DUP11 ADD SLOAD SWAP10 ADD SLOAD SWAP8 PUSH1 0x40 MLOAD SWAP12 DUP13 SWAP12 PUSH2 0x120 SWAP4 DUP14 MSTORE PUSH1 0x20 DUP14 ADD MSTORE PUSH1 0x40 DUP13 ADD MSTORE PUSH1 0x60 DUP12 ADD MSTORE DUP1 PUSH1 0x80 DUP12 ADD MSTORE DUP10 ADD SWAP1 PUSH2 0x14AE JUMP JUMPDEST SWAP1 DUP8 DUP3 SUB PUSH1 0xA0 DUP10 ADD MSTORE PUSH2 0x14AE JUMP JUMPDEST SWAP1 DUP6 DUP3 SUB PUSH1 0xC0 DUP8 ADD MSTORE PUSH2 0x14AE JUMP JUMPDEST SWAP2 PUSH1 0xE0 DUP5 ADD MSTORE PUSH2 0x100 DUP4 ADD MSTORE SUB SWAP1 RETURN JUMPDEST CALLVALUE PUSH2 0x7B7 JUMPI PUSH1 0x20 CALLDATASIZE PUSH1 0x3 NOT ADD SLT PUSH2 0x7B7 JUMPI PUSH1 0x4 CALLDATALOAD PUSH1 0x0 PUSH2 0x120 PUSH1 0x40 MLOAD PUSH2 0x8D1 DUP2 PUSH2 0x1605 JUMP JUMPDEST DUP3 DUP2 MSTORE DUP3 PUSH1 0x20 DUP3 ADD MSTORE DUP3 PUSH1 0x40 DUP3 ADD MSTORE DUP3 PUSH1 0x60 DUP3 ADD MSTORE PUSH1 0x60 PUSH1 0x80 DUP3 ADD MSTORE PUSH1 0x60 PUSH1 0xA0 DUP3 ADD MSTORE PUSH1 0x60 PUSH1 0xC0 DUP3 ADD MSTORE DUP3 PUSH1 0xE0 DUP3 ADD MSTORE PUSH1 0x60 PUSH2 0x100 DUP3 ADD MSTORE ADD MSTORE DUP1 ISZERO ISZERO DUP1 PUSH2 0xAAF JUMPI JUMPDEST PUSH2 0x91D SWAP1 PUSH2 0x1760 JUMP JUMPDEST PUSH1 0x0 MSTORE PUSH1 0x3 PUSH1 0x20 MSTORE PUSH1 0x40 PUSH1 0x0 KECCAK256 PUSH1 0x40 MLOAD SWAP1 PUSH2 0x937 DUP3 PUSH2 0x1605 JUMP JUMPDEST DUP1 SLOAD DUP3 MSTORE PUSH1 0x1 DUP1 DUP3 ADD SLOAD PUSH1 0xFF AND PUSH1 0x20 DUP5 ADD MSTORE PUSH1 0x2 DUP3 ADD SLOAD PUSH1 0x40 DUP5 ADD MSTORE PUSH1 0x3 DUP3 ADD SLOAD PUSH1 0x1 PUSH1 0x1 PUSH1 0xA0 SHL SUB AND PUSH1 0x60 DUP5 ADD MSTORE SWAP1 PUSH1 0x9 SWAP1 PUSH2 0x976 PUSH1 0x4 DUP3 ADD PUSH2 0x1642 JUMP JUMPDEST PUSH1 0x80 DUP6 ADD MSTORE PUSH2 0x987 PUSH1 0x5 DUP3 ADD PUSH2 0x1642 JUMP JUMPDEST PUSH1 0xA0 DUP6 ADD MSTORE PUSH2 0x998 PUSH1 0x6 DUP3 ADD PUSH2 0x1642 JUMP JUMPDEST PUSH1 0xC0 DUP6 ADD MSTORE PUSH1 0x7 DUP2 ADD SLOAD PUSH1 0xE0 DUP6 ADD MSTORE PUSH2 0x9B3 PUSH1 0x8 DUP3 ADD PUSH2 0x19ED JUMP JUMPDEST PUSH2 0x100 DUP6 ADD MSTORE ADD SLOAD PUSH2 0x120 DUP4 ADD MSTORE PUSH1 0x40 MLOAD SWAP1 PUSH1 0x20 DUP3 MSTORE DUP3 MLOAD PUSH1 0x20 DUP4 ADD MSTORE PUSH1 0xFF PUSH1 0x20 DUP5 ADD MLOAD AND PUSH1 0x40 DUP4 ADD MSTORE PUSH1 0x40 DUP4 ADD MLOAD PUSH1 0x60 DUP4 ADD MSTORE PUSH1 0x1 DUP1 PUSH1 0xA0 SHL SUB PUSH1 0x60 DUP5 ADD MLOAD AND PUSH1 0x80 DUP4 ADD MSTORE PUSH1 0x80 DUP4 ADD MLOAD PUSH2 0xA16 PUSH2 0x140 SWAP2 DUP3 PUSH1 0xA0 DUP7 ADD MSTORE PUSH2 0x160 DUP6 ADD SWAP1 PUSH2 0x14AE JUMP JUMPDEST SWAP2 PUSH2 0xA4A PUSH2 0xA36 PUSH1 0xA0 DUP8 ADD MLOAD SWAP5 PUSH1 0x1F NOT SWAP6 DUP7 DUP9 DUP4 SUB ADD PUSH1 0xC0 DUP10 ADD MSTORE PUSH2 0x14AE JUMP JUMPDEST PUSH1 0xC0 DUP8 ADD MLOAD DUP6 DUP8 DUP4 SUB ADD PUSH1 0xE0 DUP9 ADD MSTORE PUSH2 0x14AE JUMP JUMPDEST SWAP1 PUSH1 0xE0 DUP7 ADD MLOAD PUSH2 0x100 DUP7 ADD MSTORE PUSH2 0x100 DUP7 ADD MLOAD SWAP4 DUP6 DUP4 SUB ADD PUSH2 0x120 DUP7 ADD MSTORE PUSH1 0x20 DUP1 DUP6 MLOAD SWAP4 DUP5 DUP2 MSTORE ADD SWAP5 ADD SWAP2 PUSH1 0x0 JUMPDEST DUP2 DUP2 LT PUSH2 0xA91 JUMPI POP POP POP POP PUSH2 0x120 DUP4 SWAP5 ADD MLOAD SWAP1 DUP4 ADD MSTORE SUB SWAP1 RETURN JUMPDEST DUP4 MLOAD PUSH1 0x1 PUSH1 0x1 PUSH1 0xA0 SHL SUB AND DUP7 MSTORE PUSH1 0x20 SWAP6 DUP7 ADD SWAP6 SWAP1 SWAP4 ADD SWAP3 DUP3 ADD PUSH2 0xA77 JUMP JUMPDEST POP PUSH1 0x1 SLOAD DUP2 GT ISZERO PUSH2 0x914 JUMP JUMPDEST CALLVALUE PUSH2 0x7B7 JUMPI PUSH1 0x0 CALLDATASIZE PUSH1 0x3 NOT ADD SLT PUSH2 0x7B7 JUMPI PUSH1 0x0 SLOAD PUSH1 0x40 MLOAD PUSH1 0x1 PUSH1 0x1 PUSH1 0xA0 SHL SUB SWAP1 SWAP2 AND DUP2 MSTORE PUSH1 0x20 SWAP1 RETURN JUMPDEST PUSH1 0x20 CALLDATASIZE PUSH1 0x3 NOT ADD SLT PUSH2 0x7B7 JUMPI PUSH1 0x4 CALLDATALOAD DUP1 ISZERO ISZERO DUP1 PUSH2 0xC0D JUMPI JUMPDEST PUSH2 0xB05 SWAP1 PUSH2 0x1760 JUMP JUMPDEST PUSH1 0x0 MSTORE PUSH1 0x3 PUSH1 0x20 MSTORE PUSH1 0x40 PUSH1 0x0 KECCAK256 PUSH1 0x1 DUP2 ADD SWAP1 PUSH1 0xFF DUP3 SLOAD AND ISZERO DUP1 ISZERO PUSH2 0xBFF JUMPI JUMPDEST PUSH2 0xB2D SWAP1 PUSH2 0x1A93 JUMP JUMPDEST PUSH1 0x8 DUP2 ADD DUP1 SLOAD PUSH1 0x1 PUSH1 0x40 SHL DUP2 LT ISZERO PUSH2 0x46B JUMPI PUSH2 0xB52 DUP2 PUSH1 0x1 SWAP4 DUP5 PUSH1 0xFF SWAP5 ADD DUP2 SSTORE PUSH2 0x1ADF JUMP JUMPDEST SWAP5 SWAP1 DUP1 SLOAD SWAP6 PUSH1 0x3 SHL DUP5 DUP1 PUSH1 0xA0 SHL SUB SWAP7 DUP8 CALLER DUP4 SHL SWAP3 SHL NOT AND OR SWAP1 SSTORE SLOAD AND EQ PUSH2 0xBA2 JUMPI JUMPDEST PUSH1 0x40 MLOAD TIMESTAMP DUP2 MSTORE PUSH32 0x59A4DADCE245655CE4C5EA128F142C4034B1206DEFF52FF605866CD86433DE81 PUSH1 0x20 CALLER SWAP3 LOG2 STOP JUMPDEST PUSH1 0x0 DUP1 DUP1 DUP1 SWAP4 PUSH2 0xBF8 SWAP6 PUSH2 0xBE5 DUP4 DUP1 DUP1 DUP1 PUSH1 0x64 PUSH2 0xBC2 PUSH1 0x2 SLOAD CALLVALUE SWAP1 PUSH2 0x17F8 JUMP JUMPDEST DIV SWAP7 DUP7 PUSH1 0x3 PUSH2 0xBD1 DUP11 CALLVALUE PUSH2 0x180B JUMP JUMPDEST SWAP3 ADD SLOAD AND GAS CALL PUSH2 0xBDF PUSH2 0x1818 JUMP JUMPDEST POP PUSH2 0x1848 JUMP JUMPDEST DUP3 SLOAD AND GAS CALL PUSH2 0xBF2 PUSH2 0x1818 JUMP JUMPDEST POP PUSH2 0x189F JUMP JUMPDEST DUP1 DUP1 PUSH2 0xB74 JUMP JUMPDEST POP PUSH1 0x2 DUP2 ADD SLOAD CALLVALUE LT ISZERO PUSH2 0xB24 JUMP JUMPDEST POP PUSH1 0x1 SLOAD DUP2 GT ISZERO PUSH2 0xAFC JUMP JUMPDEST CALLVALUE PUSH2 0x7B7 JUMPI PUSH1 0x60 CALLDATASIZE PUSH1 0x3 NOT ADD SLT PUSH2 0x7B7 JUMPI PUSH1 0x1 PUSH1 0x1 PUSH1 0x40 SHL SUB PUSH1 0x4 CALLDATALOAD PUSH1 0x24 CALLDATALOAD DUP3 DUP2 GT PUSH2 0x7B7 JUMPI PUSH2 0xC4D SWAP1 CALLDATASIZE SWAP1 PUSH1 0x4 ADD PUSH2 0x1702 JUMP JUMPDEST PUSH1 0x44 CALLDATALOAD DUP4 DUP2 GT PUSH2 0x7B7 JUMPI PUSH2 0xC65 SWAP1 CALLDATASIZE SWAP1 PUSH1 0x4 ADD PUSH2 0x1702 JUMP JUMPDEST DUP3 ISZERO ISZERO DUP1 PUSH2 0xFF8 JUMPI JUMPDEST PUSH2 0xC77 SWAP1 PUSH2 0x1760 JUMP JUMPDEST DUP3 PUSH1 0x0 MSTORE PUSH1 0x3 SWAP2 PUSH1 0x20 SWAP3 DUP1 DUP5 MSTORE PUSH1 0x40 PUSH1 0x0 KECCAK256 SWAP2 PUSH1 0x9 DUP4 ADD SWAP4 PUSH2 0xC99 DUP6 SLOAD PUSH2 0x196B JUMP JUMPDEST DUP1 DUP7 SSTORE PUSH1 0x8 SWAP1 SWAP5 ADD DUP1 SLOAD PUSH1 0x0 SWAP2 DUP3 JUMPDEST DUP3 DUP2 LT PUSH2 0xFC3 JUMPI JUMPDEST POP POP POP ISZERO PUSH2 0xF5F JUMPI PUSH1 0x40 MLOAD SWAP2 PUSH2 0xCC5 DUP4 PUSH2 0x15EA JUMP JUMPDEST DUP5 DUP4 MSTORE DUP7 DUP4 ADD SWAP1 DUP2 MSTORE PUSH1 0x40 DUP4 ADD SWAP2 DUP3 MSTORE PUSH1 0x60 DUP4 ADD SWAP5 CALLER DUP7 MSTORE DUP9 PUSH1 0x0 MSTORE PUSH1 0x4 DUP9 MSTORE PUSH1 0x40 PUSH1 0x0 KECCAK256 SWAP1 PUSH1 0x0 MSTORE DUP8 MSTORE PUSH1 0x40 PUSH1 0x0 KECCAK256 SWAP3 MLOAD DUP4 SSTORE PUSH1 0x1 SWAP1 DUP2 DUP5 ADD SWAP1 MLOAD SWAP1 DUP2 MLOAD DUP12 DUP2 GT PUSH2 0x46B JUMPI DUP1 PUSH2 0xD16 DUP4 SLOAD PUSH2 0x15B0 JUMP JUMPDEST SWAP4 PUSH1 0x1F SWAP5 DUP13 DUP7 DUP3 GT PUSH2 0xF30 JUMPI JUMPDEST POP POP DUP12 SWAP1 DUP6 DUP4 GT PUSH1 0x1 EQ PUSH2 0xECE JUMPI PUSH1 0x0 SWAP3 PUSH2 0xEC3 JUMPI JUMPDEST POP POP PUSH1 0x0 NOT DUP3 DUP10 SHL SHR NOT AND SWAP1 DUP5 SHL OR SWAP1 SSTORE JUMPDEST PUSH1 0x2 DUP5 ADD SWAP3 MLOAD DUP1 MLOAD SWAP11 DUP12 GT PUSH2 0x46B JUMPI PUSH2 0xD64 DUP5 SLOAD PUSH2 0x15B0 JUMP JUMPDEST DUP12 DUP4 DUP3 GT PUSH2 0xE8A JUMPI JUMPDEST POP POP DUP9 SWAP2 DUP12 GT PUSH1 0x1 EQ PUSH2 0xDFD JUMPI SWAP10 DUP1 PUSH1 0x40 SWAP11 SWAP10 SWAP9 SWAP8 SWAP7 SWAP6 SWAP5 SWAP4 DUP2 SWAP4 PUSH32 0x5138483D623EEF75882D5CA6ED33E44C7ECAFE842F3311844EABF67A297CE76C SWAP14 PUSH1 0x0 SWAP5 PUSH2 0xDF2 JUMPI JUMPDEST POP POP SHL SWAP2 PUSH1 0x0 NOT SWAP1 DUP7 SHL SHR NOT AND OR SWAP1 SSTORE JUMPDEST ADD SWAP1 PUSH1 0x1 DUP1 PUSH1 0xA0 SHL SUB SWAP1 MLOAD AND PUSH12 0xFFFFFFFFFFFFFFFFFFFFFFFF PUSH1 0xA0 SHL DUP3 SLOAD AND OR SWAP1 SSTORE SLOAD SWAP1 DUP4 MLOAD SWAP3 DUP4 MSTORE DUP3 ADD MSTORE LOG1 STOP JUMPDEST ADD MLOAD SWAP3 POP DUP14 DUP1 PUSH2 0xDB2 JUMP JUMPDEST SWAP10 SWAP1 PUSH1 0x1F NOT DUP3 AND SWAP11 DUP5 PUSH1 0x0 MSTORE DUP10 PUSH1 0x0 KECCAK256 SWAP12 PUSH1 0x0 JUMPDEST DUP2 DUP2 LT PUSH2 0xE75 JUMPI POP SWAP2 PUSH32 0x5138483D623EEF75882D5CA6ED33E44C7ECAFE842F3311844EABF67A297CE76C SWAP13 SWAP2 DUP5 PUSH1 0x40 SWAP14 SWAP13 SWAP12 SWAP11 SWAP10 SWAP9 SWAP8 SWAP7 SWAP6 SWAP5 LT PUSH2 0xE5D JUMPI JUMPDEST POP POP POP DUP2 SHL ADD SWAP1 SSTORE PUSH2 0xDC3 JUMP JUMPDEST ADD MLOAD PUSH1 0x0 NOT DUP4 DUP9 SHL PUSH1 0xF8 AND SHR NOT AND SWAP1 SSTORE DUP12 DUP1 DUP1 PUSH2 0xE50 JUMP JUMPDEST DUP4 DUP4 ADD MLOAD DUP15 SSTORE SWAP13 DUP6 ADD SWAP13 SWAP3 DUP12 ADD SWAP3 DUP12 ADD PUSH2 0xE11 JUMP JUMPDEST PUSH2 0xEB3 SWAP2 DUP7 PUSH1 0x0 MSTORE DUP5 DUP13 PUSH1 0x0 KECCAK256 SWAP2 DUP14 DUP3 DUP6 ADD PUSH1 0x5 SHR DUP5 ADD SWAP5 LT PUSH2 0xEBA JUMPI JUMPDEST ADD PUSH1 0x5 SHR ADD SWAP1 PUSH2 0x1AF7 JUMP JUMPDEST DUP12 DUP12 PUSH2 0xD6D JUMP JUMPDEST SWAP3 POP DUP2 SWAP3 PUSH2 0xEA8 JUMP JUMPDEST ADD MLOAD SWAP1 POP DUP14 DUP1 PUSH2 0xD39 JUMP JUMPDEST PUSH1 0x0 DUP6 DUP2 MSTORE DUP14 DUP2 KECCAK256 DUP9 SWAP6 POP SWAP3 SWAP2 SWAP1 PUSH1 0x1F NOT DUP6 AND SWAP1 DUP16 JUMPDEST DUP3 DUP3 LT PUSH2 0xF19 JUMPI POP POP DUP5 GT PUSH2 0xF01 JUMPI JUMPDEST POP POP POP DUP2 SHL ADD SWAP1 SSTORE PUSH2 0xD4B JUMP JUMPDEST ADD MLOAD PUSH1 0x0 NOT DUP4 DUP12 SHL PUSH1 0xF8 AND SHR NOT AND SWAP1 SSTORE DUP14 DUP1 DUP1 PUSH2 0xEF4 JUMP JUMPDEST DUP4 DUP6 ADD MLOAD DUP7 SSTORE DUP11 SWAP8 SWAP1 SWAP6 ADD SWAP5 SWAP4 DUP5 ADD SWAP4 ADD DUP16 PUSH2 0xEE4 JUMP JUMPDEST PUSH2 0xF58 SWAP2 DUP7 PUSH1 0x0 MSTORE DUP8 DUP3 PUSH1 0x0 KECCAK256 SWAP2 DUP2 DUP8 ADD PUSH1 0x5 SHR DUP4 ADD SWAP4 DUP8 LT PUSH2 0xEBA JUMPI ADD PUSH1 0x5 SHR ADD SWAP1 PUSH2 0x1AF7 JUMP JUMPDEST DUP15 DUP13 PUSH2 0xD23 JUMP JUMPDEST PUSH1 0x40 MLOAD PUSH3 0x461BCD PUSH1 0xE5 SHL DUP2 MSTORE PUSH1 0x4 DUP2 ADD DUP8 SWAP1 MSTORE PUSH1 0x36 PUSH1 0x24 DUP3 ADD MSTORE PUSH32 0x4F6E6C792074686F73652077686F2068617665206A6F696E6564207468652061 PUSH1 0x44 DUP3 ADD MSTORE PUSH22 0x36313AB69031B0B71030B2321030B71034B6B0B3B297 PUSH1 0x51 SHL PUSH1 0x64 DUP3 ADD MSTORE PUSH1 0x84 SWAP1 REVERT JUMPDEST PUSH2 0xFCD DUP2 DUP4 PUSH2 0x1ADF JUMP JUMPDEST SWAP1 SLOAD SWAP1 DUP9 SHL SHR PUSH1 0x1 PUSH1 0x1 PUSH1 0xA0 SHL SUB AND CALLER EQ PUSH2 0xFEA JUMPI PUSH1 0x1 ADD PUSH2 0xCA8 JUMP JUMPDEST POP POP POP POP PUSH1 0x1 DUP10 DUP1 DUP1 PUSH2 0xCB0 JUMP JUMPDEST POP PUSH1 0x1 SLOAD DUP4 GT ISZERO PUSH2 0xC6E JUMP JUMPDEST CALLVALUE PUSH2 0x7B7 JUMPI PUSH1 0x0 CALLDATASIZE PUSH1 0x3 NOT ADD SLT PUSH2 0x7B7 JUMPI PUSH1 0x20 PUSH1 0x1 SLOAD PUSH1 0x40 MLOAD SWAP1 DUP2 MSTORE RETURN JUMPDEST PUSH2 0x102B CALLDATASIZE PUSH2 0x159A JUMP JUMPDEST SWAP1 PUSH2 0x1034 PUSH2 0x18F6 JUMP JUMPDEST POP DUP1 ISZERO ISZERO DUP1 PUSH2 0x1129 JUMPI JUMPDEST PUSH2 0x1047 SWAP1 PUSH2 0x1760 JUMP JUMPDEST DUP2 ISZERO ISZERO DUP1 PUSH2 0x110E JUMPI JUMPDEST PUSH2 0x1059 SWAP1 PUSH2 0x1A47 JUMP JUMPDEST DUP1 PUSH1 0x0 MSTORE PUSH1 0x3 PUSH1 0x20 MSTORE PUSH2 0x10C4 PUSH1 0x0 DUP1 DUP1 DUP1 PUSH1 0x40 DUP2 KECCAK256 PUSH1 0x1 PUSH1 0xFF DUP2 DUP4 ADD SLOAD AND EQ DUP1 PUSH2 0x1100 JUMPI JUMPDEST PUSH2 0x1087 SWAP1 PUSH2 0x17AC JUMP JUMPDEST PUSH1 0x3 PUSH2 0xBE5 DUP4 DUP1 DUP1 DUP1 PUSH1 0x64 PUSH2 0x109F PUSH1 0x2 SLOAD CALLVALUE SWAP1 PUSH2 0x17F8 JUMP JUMPDEST DIV SWAP7 PUSH2 0x10AB DUP9 CALLVALUE PUSH2 0x180B JUMP JUMPDEST SWAP7 ADD SLOAD PUSH1 0x1 PUSH1 0x1 PUSH1 0xA0 SHL SUB SWAP7 SWAP1 DUP8 AND GAS CALL PUSH2 0xBDF PUSH2 0x1818 JUMP JUMPDEST PUSH1 0x0 MSTORE PUSH1 0x4 PUSH1 0x20 MSTORE PUSH1 0x40 PUSH1 0x0 KECCAK256 SWAP1 PUSH1 0x0 MSTORE PUSH1 0x20 MSTORE PUSH2 0x10FC PUSH2 0x10E8 PUSH1 0x40 PUSH1 0x0 KECCAK256 PUSH2 0x19A4 JUMP JUMPDEST PUSH1 0x40 MLOAD SWAP2 DUP3 SWAP2 PUSH1 0x20 DUP4 MSTORE PUSH1 0x20 DUP4 ADD SWAP1 PUSH2 0x14EE JUMP JUMPDEST SUB SWAP1 RETURN JUMPDEST POP PUSH1 0x2 DUP2 ADD SLOAD CALLVALUE LT ISZERO PUSH2 0x107E JUMP JUMPDEST POP PUSH1 0x0 DUP2 DUP2 MSTORE PUSH1 0x3 PUSH1 0x20 MSTORE PUSH1 0x40 SWAP1 KECCAK256 PUSH1 0x9 ADD SLOAD DUP3 GT ISZERO PUSH2 0x1050 JUMP JUMPDEST POP PUSH1 0x1 SLOAD DUP2 GT ISZERO PUSH2 0x103E JUMP JUMPDEST CALLVALUE PUSH2 0x7B7 JUMPI PUSH1 0x20 DUP1 PUSH1 0x3 NOT CALLDATASIZE ADD SLT PUSH2 0x7B7 JUMPI PUSH1 0x4 CALLDATALOAD SWAP1 DUP2 ISZERO ISZERO DUP1 PUSH2 0x11F6 JUMPI JUMPDEST PUSH2 0x115D SWAP1 PUSH2 0x1760 JUMP JUMPDEST DUP2 PUSH1 0x0 MSTORE PUSH1 0x3 PUSH1 0x20 MSTORE PUSH1 0x9 PUSH1 0x40 PUSH1 0x0 KECCAK256 PUSH2 0x117E PUSH1 0xFF PUSH1 0x1 DUP4 ADD SLOAD AND ISZERO PUSH2 0x1A93 JUMP JUMPDEST ADD SLOAD SWAP1 PUSH2 0x118A DUP3 PUSH2 0x191B JUMP JUMPDEST SWAP3 PUSH1 0x1 JUMPDEST DUP4 DUP2 GT ISZERO PUSH2 0x11A4 JUMPI PUSH1 0x40 MLOAD DUP1 PUSH2 0x10FC DUP8 DUP3 PUSH2 0x1536 JUMP JUMPDEST DUP2 PUSH1 0x0 MSTORE PUSH1 0x4 DUP4 MSTORE PUSH1 0x40 PUSH1 0x0 KECCAK256 DUP2 PUSH1 0x0 MSTORE DUP4 MSTORE PUSH1 0x40 PUSH1 0x0 KECCAK256 SWAP1 PUSH1 0x0 NOT DUP2 ADD SWAP2 DUP2 DUP4 GT PUSH2 0x69A JUMPI PUSH2 0x11F1 SWAP3 PUSH2 0x11DA PUSH2 0x11EB SWAP3 PUSH2 0x19A4 JUMP JUMPDEST PUSH2 0x11E4 DUP3 DUP11 PUSH2 0x197A JUMP JUMPDEST MSTORE DUP8 PUSH2 0x197A JUMP JUMPDEST POP PUSH2 0x196B JUMP JUMPDEST PUSH2 0x118E JUMP JUMPDEST POP PUSH1 0x1 SLOAD DUP3 GT ISZERO PUSH2 0x1154 JUMP JUMPDEST CALLVALUE PUSH2 0x7B7 JUMPI PUSH2 0x1210 CALLDATASIZE PUSH2 0x159A JUMP JUMPDEST SWAP1 PUSH1 0x0 MSTORE PUSH1 0x4 PUSH1 0x20 MSTORE PUSH1 0x40 PUSH1 0x0 KECCAK256 SWAP1 PUSH1 0x0 MSTORE PUSH1 0x20 MSTORE PUSH1 0x40 PUSH1 0x0 KECCAK256 DUP1 SLOAD PUSH2 0x1238 PUSH1 0x1 DUP4 ADD PUSH2 0x1642 JUMP JUMPDEST SWAP2 PUSH2 0x1281 PUSH2 0x1248 PUSH1 0x2 DUP4 ADD PUSH2 0x1642 JUMP JUMPDEST SWAP2 PUSH1 0x3 PUSH1 0x1 DUP1 PUSH1 0xA0 SHL SUB SWAP2 ADD SLOAD AND SWAP2 PUSH2 0x1273 PUSH1 0x40 MLOAD SWAP6 DUP7 SWAP6 DUP7 MSTORE PUSH1 0x80 PUSH1 0x20 DUP8 ADD MSTORE PUSH1 0x80 DUP7 ADD SWAP1 PUSH2 0x14AE JUMP JUMPDEST SWAP1 DUP5 DUP3 SUB PUSH1 0x40 DUP7 ADD MSTORE PUSH2 0x14AE JUMP JUMPDEST SWAP1 PUSH1 0x60 DUP4 ADD MSTORE SUB SWAP1 RETURN JUMPDEST CALLVALUE PUSH2 0x7B7 JUMPI PUSH2 0x1299 CALLDATASIZE PUSH2 0x159A JUMP JUMPDEST SWAP1 PUSH2 0x12A2 PUSH2 0x18F6 JUMP JUMPDEST POP DUP1 ISZERO ISZERO DUP1 PUSH2 0x1300 JUMPI JUMPDEST PUSH2 0x12B5 SWAP1 PUSH2 0x1760 JUMP JUMPDEST DUP2 ISZERO ISZERO DUP1 PUSH2 0x12E5 JUMPI JUMPDEST PUSH2 0x12C7 SWAP1 PUSH2 0x1A47 JUMP JUMPDEST DUP1 PUSH1 0x0 MSTORE PUSH1 0x3 PUSH1 0x20 MSTORE PUSH2 0x10C4 PUSH1 0xFF PUSH1 0x1 PUSH1 0x40 PUSH1 0x0 KECCAK256 ADD SLOAD AND ISZERO PUSH2 0x1A93 JUMP JUMPDEST POP PUSH1 0x0 DUP2 DUP2 MSTORE PUSH1 0x3 PUSH1 0x20 MSTORE PUSH1 0x40 SWAP1 KECCAK256 PUSH1 0x9 ADD SLOAD DUP3 GT ISZERO PUSH2 0x12BE JUMP JUMPDEST POP PUSH1 0x1 SLOAD DUP2 GT ISZERO PUSH2 0x12AC JUMP JUMPDEST CALLVALUE PUSH2 0x7B7 JUMPI PUSH1 0x20 DUP1 PUSH1 0x3 NOT CALLDATASIZE ADD SLT PUSH2 0x7B7 JUMPI PUSH1 0x4 CALLDATALOAD DUP1 ISZERO ISZERO DUP1 PUSH2 0x1396 JUMPI JUMPDEST PUSH2 0x1333 SWAP1 PUSH2 0x1760 JUMP JUMPDEST PUSH1 0x0 MSTORE PUSH1 0x3 DUP2 MSTORE PUSH2 0x134A PUSH1 0x8 PUSH1 0x40 PUSH1 0x0 KECCAK256 ADD PUSH2 0x19ED JUMP JUMPDEST SWAP1 PUSH1 0x40 MLOAD SWAP2 DUP2 DUP4 SWAP3 DUP4 ADD DUP2 DUP5 MSTORE DUP3 MLOAD DUP1 SWAP2 MSTORE DUP2 PUSH1 0x40 DUP6 ADD SWAP4 ADD SWAP2 PUSH1 0x0 JUMPDEST DUP3 DUP2 LT PUSH2 0x1376 JUMPI POP POP POP POP SUB SWAP1 RETURN JUMPDEST DUP4 MLOAD PUSH1 0x1 PUSH1 0x1 PUSH1 0xA0 SHL SUB AND DUP6 MSTORE DUP7 SWAP6 POP SWAP4 DUP2 ADD SWAP4 SWAP3 DUP2 ADD SWAP3 PUSH1 0x1 ADD PUSH2 0x1367 JUMP JUMPDEST POP PUSH1 0x1 SLOAD DUP2 GT ISZERO PUSH2 0x132A JUMP JUMPDEST PUSH1 0x20 DUP1 PUSH1 0x3 NOT CALLDATASIZE ADD SLT PUSH2 0x7B7 JUMPI PUSH1 0x4 CALLDATALOAD SWAP1 DUP2 ISZERO ISZERO DUP1 PUSH2 0x14A2 JUMPI JUMPDEST PUSH2 0x13C5 SWAP1 PUSH2 0x1760 JUMP JUMPDEST DUP2 PUSH1 0x0 MSTORE PUSH1 0x3 PUSH1 0x20 MSTORE PUSH1 0x9 PUSH1 0x40 PUSH1 0x0 KECCAK256 PUSH1 0x1 PUSH1 0xFF DUP2 DUP4 ADD SLOAD AND EQ DUP1 PUSH2 0x1494 JUMPI JUMPDEST PUSH2 0x13EE SWAP1 PUSH2 0x17AC JUMP JUMPDEST PUSH2 0x1433 PUSH1 0x0 DUP1 DUP1 DUP1 PUSH1 0x64 PUSH2 0x1405 PUSH1 0x2 SLOAD CALLVALUE SWAP1 PUSH2 0x17F8 JUMP JUMPDEST DIV PUSH1 0x3 PUSH2 0xBE5 DUP4 DUP1 DUP1 DUP1 PUSH2 0x1419 DUP8 CALLVALUE PUSH2 0x180B JUMP JUMPDEST SWAP6 DUP14 ADD SLOAD PUSH1 0x1 PUSH1 0x1 PUSH1 0xA0 SHL SUB SWAP7 SWAP1 DUP8 AND GAS CALL PUSH2 0xBDF PUSH2 0x1818 JUMP JUMPDEST ADD SLOAD SWAP1 PUSH2 0x143F DUP3 PUSH2 0x191B JUMP JUMPDEST SWAP3 PUSH1 0x1 JUMPDEST DUP4 DUP2 GT ISZERO PUSH2 0x1459 JUMPI PUSH1 0x40 MLOAD DUP1 PUSH2 0x10FC DUP8 DUP3 PUSH2 0x1536 JUMP JUMPDEST DUP2 PUSH1 0x0 MSTORE PUSH1 0x4 DUP4 MSTORE PUSH1 0x40 PUSH1 0x0 KECCAK256 DUP2 PUSH1 0x0 MSTORE DUP4 MSTORE PUSH1 0x40 PUSH1 0x0 KECCAK256 SWAP1 PUSH1 0x0 NOT DUP2 ADD SWAP2 DUP2 DUP4 GT PUSH2 0x69A JUMPI PUSH2 0x148F SWAP3 PUSH2 0x11DA PUSH2 0x11EB SWAP3 PUSH2 0x19A4 JUMP JUMPDEST PUSH2 0x1443 JUMP JUMPDEST POP PUSH1 0x2 DUP2 ADD SLOAD CALLVALUE LT ISZERO PUSH2 0x13E5 JUMP JUMPDEST POP PUSH1 0x1 SLOAD DUP3 GT ISZERO PUSH2 0x13BC JUMP JUMPDEST SWAP2 SWAP1 DUP3 MLOAD SWAP3 DUP4 DUP3 MSTORE PUSH1 0x0 JUMPDEST DUP5 DUP2 LT PUSH2 0x14DA JUMPI POP POP DUP3 PUSH1 0x0 PUSH1 0x20 DUP1 SWAP5 SWAP6 DUP5 ADD ADD MSTORE PUSH1 0x1F DUP1 NOT SWAP2 ADD AND ADD ADD SWAP1 JUMP JUMPDEST PUSH1 0x20 DUP2 DUP4 ADD DUP2 ADD MLOAD DUP5 DUP4 ADD DUP3 ADD MSTORE ADD PUSH2 0x14B9 JUMP JUMPDEST SWAP1 DUP2 MLOAD DUP2 MSTORE PUSH1 0x60 PUSH2 0x1523 PUSH2 0x1511 PUSH1 0x20 DUP6 ADD MLOAD PUSH1 0x80 PUSH1 0x20 DUP7 ADD MSTORE PUSH1 0x80 DUP6 ADD SWAP1 PUSH2 0x14AE JUMP JUMPDEST PUSH1 0x40 DUP6 ADD MLOAD DUP5 DUP3 SUB PUSH1 0x40 DUP7 ADD MSTORE PUSH2 0x14AE JUMP JUMPDEST SWAP3 DUP2 ADD MLOAD PUSH1 0x1 PUSH1 0x1 PUSH1 0xA0 SHL SUB AND SWAP2 ADD MSTORE SWAP1 JUMP JUMPDEST PUSH1 0x20 DUP1 DUP3 ADD SWAP1 PUSH1 0x20 DUP4 MSTORE DUP4 MLOAD DUP1 SWAP3 MSTORE PUSH1 0x40 DUP4 ADD SWAP3 PUSH1 0x20 PUSH1 0x40 DUP5 PUSH1 0x5 SHL DUP4 ADD ADD SWAP6 ADD SWAP4 PUSH1 0x0 SWAP2 JUMPDEST DUP5 DUP4 LT PUSH2 0x156C JUMPI POP POP POP POP POP POP SWAP1 JUMP JUMPDEST SWAP1 SWAP2 SWAP3 SWAP4 SWAP5 SWAP6 DUP5 DUP1 PUSH2 0x158A PUSH1 0x1 SWAP4 PUSH1 0x3F NOT DUP7 DUP3 SUB ADD DUP8 MSTORE DUP11 MLOAD PUSH2 0x14EE JUMP JUMPDEST SWAP9 ADD SWAP4 ADD SWAP4 ADD SWAP2 SWAP5 SWAP4 SWAP3 SWAP1 PUSH2 0x155C JUMP JUMPDEST PUSH1 0x40 SWAP1 PUSH1 0x3 NOT ADD SLT PUSH2 0x7B7 JUMPI PUSH1 0x4 CALLDATALOAD SWAP1 PUSH1 0x24 CALLDATALOAD SWAP1 JUMP JUMPDEST SWAP1 PUSH1 0x1 DUP3 DUP2 SHR SWAP3 AND DUP1 ISZERO PUSH2 0x15E0 JUMPI JUMPDEST PUSH1 0x20 DUP4 LT EQ PUSH2 0x15CA JUMPI JUMP JUMPDEST PUSH4 0x4E487B71 PUSH1 0xE0 SHL PUSH1 0x0 MSTORE PUSH1 0x22 PUSH1 0x4 MSTORE PUSH1 0x24 PUSH1 0x0 REVERT JUMPDEST SWAP2 PUSH1 0x7F AND SWAP2 PUSH2 0x15BF JUMP JUMPDEST PUSH1 0x80 DUP2 ADD SWAP1 DUP2 LT PUSH1 0x1 PUSH1 0x1 PUSH1 0x40 SHL SUB DUP3 GT OR PUSH2 0x46B JUMPI PUSH1 0x40 MSTORE JUMP JUMPDEST PUSH2 0x140 DUP2 ADD SWAP1 DUP2 LT PUSH1 0x1 PUSH1 0x1 PUSH1 0x40 SHL SUB DUP3 GT OR PUSH2 0x46B JUMPI PUSH1 0x40 MSTORE JUMP JUMPDEST SWAP1 PUSH1 0x1F DUP1 NOT SWAP2 ADD AND DUP2 ADD SWAP1 DUP2 LT PUSH1 0x1 PUSH1 0x1 PUSH1 0x40 SHL SUB DUP3 GT OR PUSH2 0x46B JUMPI PUSH1 0x40 MSTORE JUMP JUMPDEST SWAP1 PUSH1 0x40 MLOAD SWAP2 DUP3 PUSH1 0x0 DUP3 SLOAD PUSH2 0x1655 DUP2 PUSH2 0x15B0 JUMP JUMPDEST SWAP1 DUP2 DUP5 MSTORE PUSH1 0x20 SWAP5 PUSH1 0x1 SWAP2 PUSH1 0x1 DUP2 AND SWAP1 DUP2 PUSH1 0x0 EQ PUSH2 0x16C5 JUMPI POP PUSH1 0x1 EQ PUSH2 0x1686 JUMPI JUMPDEST POP POP POP PUSH2 0x1684 SWAP3 POP SUB DUP4 PUSH2 0x1621 JUMP JUMPDEST JUMP JUMPDEST PUSH1 0x0 SWAP1 DUP2 MSTORE DUP6 DUP2 KECCAK256 SWAP6 SWAP4 POP SWAP2 SWAP1 JUMPDEST DUP2 DUP4 LT PUSH2 0x16AD JUMPI POP POP PUSH2 0x1684 SWAP4 POP DUP3 ADD ADD CODESIZE DUP1 DUP1 PUSH2 0x1675 JUMP JUMPDEST DUP6 SLOAD DUP9 DUP5 ADD DUP6 ADD MSTORE SWAP5 DUP6 ADD SWAP5 DUP8 SWAP5 POP SWAP2 DUP4 ADD SWAP2 PUSH2 0x1694 JUMP JUMPDEST SWAP3 POP POP POP PUSH2 0x1684 SWAP5 SWAP3 POP PUSH1 0xFF NOT AND DUP3 DUP5 ADD MSTORE ISZERO ISZERO PUSH1 0x5 SHL DUP3 ADD ADD CODESIZE DUP1 DUP1 PUSH2 0x1675 JUMP JUMPDEST PUSH1 0x1 PUSH1 0x1 PUSH1 0x40 SHL SUB DUP2 GT PUSH2 0x46B JUMPI PUSH1 0x1F ADD PUSH1 0x1F NOT AND PUSH1 0x20 ADD SWAP1 JUMP JUMPDEST DUP2 PUSH1 0x1F DUP3 ADD SLT ISZERO PUSH2 0x7B7 JUMPI DUP1 CALLDATALOAD SWAP1 PUSH2 0x1719 DUP3 PUSH2 0x16E7 JUMP JUMPDEST SWAP3 PUSH2 0x1727 PUSH1 0x40 MLOAD SWAP5 DUP6 PUSH2 0x1621 JUMP JUMPDEST DUP3 DUP5 MSTORE PUSH1 0x20 DUP4 DUP4 ADD ADD GT PUSH2 0x7B7 JUMPI DUP2 PUSH1 0x0 SWAP3 PUSH1 0x20 DUP1 SWAP4 ADD DUP4 DUP7 ADD CALLDATACOPY DUP4 ADD ADD MSTORE SWAP1 JUMP JUMPDEST PUSH1 0x1 PUSH1 0x1 PUSH1 0x40 SHL SUB DUP2 GT PUSH2 0x46B JUMPI PUSH1 0x5 SHL PUSH1 0x20 ADD SWAP1 JUMP JUMPDEST ISZERO PUSH2 0x1767 JUMPI JUMP JUMPDEST PUSH1 0x40 MLOAD PUSH3 0x461BCD PUSH1 0xE5 SHL DUP2 MSTORE PUSH1 0x20 PUSH1 0x4 DUP3 ADD MSTORE PUSH1 0x19 PUSH1 0x24 DUP3 ADD MSTORE PUSH32 0x5468697320616C62756D20646F6573206E6F7420657869737400000000000000 PUSH1 0x44 DUP3 ADD MSTORE PUSH1 0x64 SWAP1 REVERT JUMPDEST ISZERO PUSH2 0x17B3 JUMPI JUMP JUMPDEST PUSH1 0x40 MLOAD PUSH3 0x461BCD PUSH1 0xE5 SHL DUP2 MSTORE PUSH1 0x20 PUSH1 0x4 DUP3 ADD MSTORE PUSH1 0x17 PUSH1 0x24 DUP3 ADD MSTORE PUSH32 0x546869732069732061207075626C696320616C62756D2E000000000000000000 PUSH1 0x44 DUP3 ADD MSTORE PUSH1 0x64 SWAP1 REVERT JUMPDEST DUP2 DUP2 MUL SWAP3 SWAP2 DUP2 ISZERO SWAP2 DUP5 DIV EQ OR ISZERO PUSH2 0x69A JUMPI JUMP JUMPDEST SWAP2 SWAP1 DUP3 SUB SWAP2 DUP3 GT PUSH2 0x69A JUMPI JUMP JUMPDEST RETURNDATASIZE ISZERO PUSH2 0x1843 JUMPI RETURNDATASIZE SWAP1 PUSH2 0x1829 DUP3 PUSH2 0x16E7 JUMP JUMPDEST SWAP2 PUSH2 0x1837 PUSH1 0x40 MLOAD SWAP4 DUP5 PUSH2 0x1621 JUMP JUMPDEST DUP3 MSTORE RETURNDATASIZE PUSH1 0x0 PUSH1 0x20 DUP5 ADD RETURNDATACOPY JUMP JUMPDEST PUSH1 0x60 SWAP1 JUMP JUMPDEST ISZERO PUSH2 0x184F JUMPI JUMP JUMPDEST PUSH1 0x40 MLOAD PUSH3 0x461BCD PUSH1 0xE5 SHL DUP2 MSTORE PUSH1 0x20 PUSH1 0x4 DUP3 ADD MSTORE PUSH1 0x22 PUSH1 0x24 DUP3 ADD MSTORE PUSH32 0x466565207061796D656E7420746F20616C62756D206F776E6572206661696C65 PUSH1 0x44 DUP3 ADD MSTORE PUSH2 0x3217 PUSH1 0xF1 SHL PUSH1 0x64 DUP3 ADD MSTORE PUSH1 0x84 SWAP1 REVERT JUMPDEST ISZERO PUSH2 0x18A6 JUMPI JUMP JUMPDEST PUSH1 0x40 MLOAD PUSH3 0x461BCD PUSH1 0xE5 SHL DUP2 MSTORE PUSH1 0x20 PUSH1 0x4 DUP3 ADD MSTORE PUSH1 0x22 PUSH1 0x24 DUP3 ADD MSTORE PUSH32 0x466565207061796D656E7420746F207472796265206F776E6572206661696C65 PUSH1 0x44 DUP3 ADD MSTORE PUSH2 0x3217 PUSH1 0xF1 SHL PUSH1 0x64 DUP3 ADD MSTORE PUSH1 0x84 SWAP1 REVERT JUMPDEST PUSH1 0x40 MLOAD SWAP1 PUSH2 0x1903 DUP3 PUSH2 0x15EA JUMP JUMPDEST PUSH1 0x0 PUSH1 0x60 DUP4 DUP3 DUP2 MSTORE DUP2 PUSH1 0x20 DUP3 ADD MSTORE DUP2 PUSH1 0x40 DUP3 ADD MSTORE ADD MSTORE JUMP JUMPDEST SWAP1 PUSH2 0x1925 DUP3 PUSH2 0x1749 JUMP JUMPDEST PUSH2 0x1932 PUSH1 0x40 MLOAD SWAP2 DUP3 PUSH2 0x1621 JUMP JUMPDEST DUP3 DUP2 MSTORE DUP1 SWAP3 PUSH2 0x1943 PUSH1 0x1F NOT SWAP2 PUSH2 0x1749 JUMP JUMPDEST ADD SWAP1 PUSH1 0x0 JUMPDEST DUP3 DUP2 LT PUSH2 0x1954 JUMPI POP POP POP JUMP JUMPDEST PUSH1 0x20 SWAP1 PUSH2 0x195F PUSH2 0x18F6 JUMP JUMPDEST DUP3 DUP3 DUP6 ADD ADD MSTORE ADD PUSH2 0x1948 JUMP JUMPDEST PUSH1 0x0 NOT DUP2 EQ PUSH2 0x69A JUMPI PUSH1 0x1 ADD SWAP1 JUMP JUMPDEST DUP1 MLOAD DUP3 LT ISZERO PUSH2 0x198E JUMPI PUSH1 0x20 SWAP2 PUSH1 0x5 SHL ADD ADD SWAP1 JUMP JUMPDEST PUSH4 0x4E487B71 PUSH1 0xE0 SHL PUSH1 0x0 MSTORE PUSH1 0x32 PUSH1 0x4 MSTORE PUSH1 0x24 PUSH1 0x0 REVERT JUMPDEST SWAP1 PUSH1 0x40 MLOAD PUSH2 0x19B1 DUP2 PUSH2 0x15EA JUMP JUMPDEST PUSH1 0x60 DUP2 SWAP4 DUP1 SLOAD DUP4 MSTORE PUSH2 0x19C5 PUSH1 0x1 DUP3 ADD PUSH2 0x1642 JUMP JUMPDEST PUSH1 0x20 DUP5 ADD MSTORE PUSH2 0x19D6 PUSH1 0x2 DUP3 ADD PUSH2 0x1642 JUMP JUMPDEST PUSH1 0x40 DUP5 ADD MSTORE PUSH1 0x3 ADD SLOAD PUSH1 0x1 PUSH1 0x1 PUSH1 0xA0 SHL SUB AND SWAP2 ADD MSTORE JUMP JUMPDEST SWAP1 PUSH1 0x40 MLOAD SWAP2 DUP3 DUP2 SLOAD SWAP2 DUP3 DUP3 MSTORE PUSH1 0x20 SWAP3 PUSH1 0x20 DUP4 ADD SWAP2 PUSH1 0x0 MSTORE PUSH1 0x20 PUSH1 0x0 KECCAK256 SWAP4 PUSH1 0x0 SWAP1 JUMPDEST DUP3 DUP3 LT PUSH2 0x1A24 JUMPI POP POP POP PUSH2 0x1684 SWAP3 POP SUB DUP4 PUSH2 0x1621 JUMP JUMPDEST DUP6 SLOAD PUSH1 0x1 PUSH1 0x1 PUSH1 0xA0 SHL SUB AND DUP5 MSTORE PUSH1 0x1 SWAP6 DUP7 ADD SWAP6 DUP9 SWAP6 POP SWAP4 DUP2 ADD SWAP4 SWAP1 SWAP2 ADD SWAP1 PUSH2 0x1A0E JUMP JUMPDEST ISZERO PUSH2 0x1A4E JUMPI JUMP JUMPDEST PUSH1 0x40 MLOAD PUSH3 0x461BCD PUSH1 0xE5 SHL DUP2 MSTORE PUSH1 0x20 PUSH1 0x4 DUP3 ADD MSTORE PUSH1 0x19 PUSH1 0x24 DUP3 ADD MSTORE PUSH32 0x5468697320696D61676520646F6573206E6F7420657869737400000000000000 PUSH1 0x44 DUP3 ADD MSTORE PUSH1 0x64 SWAP1 REVERT JUMPDEST ISZERO PUSH2 0x1A9A JUMPI JUMP JUMPDEST PUSH1 0x40 MLOAD PUSH3 0x461BCD PUSH1 0xE5 SHL DUP2 MSTORE PUSH1 0x20 PUSH1 0x4 DUP3 ADD MSTORE PUSH1 0x18 PUSH1 0x24 DUP3 ADD MSTORE PUSH32 0x546869732069732061207072697661746520616C62756D2E0000000000000000 PUSH1 0x44 DUP3 ADD MSTORE PUSH1 0x64 SWAP1 REVERT JUMPDEST DUP1 SLOAD DUP3 LT ISZERO PUSH2 0x198E JUMPI PUSH1 0x0 MSTORE PUSH1 0x20 PUSH1 0x0 KECCAK256 ADD SWAP1 PUSH1 0x0 SWAP1 JUMP JUMPDEST DUP2 DUP2 LT PUSH2 0x1B02 JUMPI POP POP JUMP JUMPDEST PUSH1 0x0 DUP2 SSTORE PUSH1 0x1 ADD PUSH2 0x1AF7 JUMP INVALID LOG2 PUSH5 0x6970667358 0x22 SLT KECCAK256 0xCC LOG2 SWAP4 MSIZE 0xBC GASPRICE SWAP5 PUSH24 0xFBED0ED1023D798439DD14DDD24A22AD4D5205F162BBB62 PUSH5 0x736F6C6343 STOP ADDMOD XOR STOP CALLER "
        },
        "methodIdentifiers": {
          "addImageToAlbum(uint256,string,string)": "6f4e27f0",
          "album(uint256)": "e89e6a00",
          "createAlbum(string,string,address[],string,uint8,uint256)": "f3187157",
          "getAlbum(uint256)": "d6e465c9",
          "getImageInPrivateAlbum(uint256,uint256)": "57d47a9d",
          "getImageInPublicAlbum(uint256,uint256)": "40368f85",
          "getImagesInPrivateAlbum(uint256)": "0fd59adb",
          "getImagesInPublicAlbum(uint256)": "56148eb1",
          "getListofParticipants(uint256)": "3b8f313b",
          "imagesInAlbum(uint256,uint256)": "51927c6d",
          "joinAlbum(uint256)": "8d84d7fc",
          "owner()": "8da5cb5b",
          "totalNoOfAlbumsCreated()": "6d49f8cc"
        }
      }
    }
  }
}